:020000040800F2
:10000000000700209D010008DF260008F9240008F1
:10001000DD260008590B0008B52B00080000000081
:10002000000000000000000000000000E3260008BF
:100030005B0B000800000000E1260008E526000830
:10004000B7010008B7010008B7010008B7010008B0
:10005000B7010008B7010008B7010008B7010008A0
:10006000B7010008B7010008B7010008B701000890
:10007000B7010008B7010008B7010008B701000880
:10008000B7010008B7010008B7010008B701000870
:10009000B7010008B7010008B70100085D0B0008B0
:1000A000B7010008B7010008B7010008B701000850
:1000B0008D270008B7010008B7010008B701000844
:1000C000B7010008B7010008B7010008B701000830
:1000D000B7010008A92B0008B7010008B701000804
:1000E000B7010008B7010008B7010008B701000810
:1000F000B7010008B7010008B7010008B701000800
:10010000B7010008B7010008B7010008B7010008EF
:10011000B7010008B7010008B7010008B7010008DF
:10012000B7010008B7010008B7010008B7010008CF
:10013000B7010008B7010008B7010008B7010008BF
:10014000B7010008B7010008B7010008B7010008AF
:10015000B7010008B7010008B7010008B70100089F
:10016000B7010008B7010008B7010008B70100088F
:10017000B7010008B7010008B7010008000000003F
:10018000B7010008B7010008DFF80CD000F02AFB27
:1001900000480047F934000800070020064880475F
:1001A00006480047FEE7FEE7FEE7FEE7FEE7FEE75C
:1001B000FEE7FEE7FEE7FEE77D270008890100086D
:1001C0002DE9F05F0546002092469B46884606468C
:1001D000814640241BE0284641464746224600F01F
:1001E0004AFA53465A46C01A914110D3114618464E
:1001F000224600F031FA2D1A67EB01084F462246DD
:100200000120002100F028FA17EB00094E41201EC2
:10021000A4F10104DFDC484631462A464346BDE8E6
:10022000F09FD2B201E000F8012B491EFBD27047CB
:100230000022F6E710B513460A4604461946FFF7B2
:10024000F0FF204610BD2DE9FE4F804681EA0300F5
:10025000C00F0C46009021F0004123F00045B8EBA0
:100260000200A94105D24046214690461C460B4655
:10027000024623F00040104347D0270DC7F30A0081
:10028000C3F30A510290401A019040286BDAC3F37D
:10029000130040F4801B0098924620B10023D2EB5B
:1002A000030A63EB0B0B01985946C0F1400250461C
:1002B00000F0D2F906460D4650465946019A00F024
:1002C000EAF910EB08006141002487EA115284EA40
:1002D000E7731A4340D0009A62B3019A012A4FEAA9
:1002E000075215DC001B61EB02014FF0004202EAED
:1002F0000752CDE90042001C41F5801132462B46E1
:1003000000F021FA03B0BDE8F08F40462146F9E73E
:10031000001B61EB0201001C41F5801300185B41DA
:100320002018A2F5001747EB030140EAD570B61973
:100330006D4111E06D084FEA360645EAC0754FEA97
:100340000752001B61EB0201001C41F580114908B6
:100350004FEA30000019514132462B4603B0BDE848
:10036000F04F00F0E1B90098012240000023D0EBEB
:10037000020263EBE073009821464FEAE074B8EBA9
:10038000000061EB0401E9E783F000435BE781F0E3
:10039000004158E72DE9FE4F81EA030404F00044D0
:1003A00021F0004100944FF0000B23F0004350EA8D
:1003B00001045ED052EA03045BD0C3F30A54C1F3D4
:1003C0000A552C44A4F2F3340194A0FB0254C1F367
:1003D000130141F48011C3F3130343F4801301FBB1
:1003E000024400FB034E840A970A44EA815447EA18
:1003F0008357A4FB076802958D0A05FB07854FEA22
:10040000932C04FB0C542705029D4FEA065847EA3B
:100410001637B5EB08056EEB070C870E920E47EA10
:10042000811742EA8312A7FB0201B6EB0B0164EBD2
:1004300000042B0D43EA0C335E1844EB1C50DA46E3
:100440005146E7FB0201C5F313044FEA0B3343EABD
:1004500014534FEA0432019C43EA0603A4F10C044E
:100460000294009CCDE900B400F06DF903B0BDE842
:10047000F08F00200146F9E72DE9F04D81EA0304F1
:1004800004F0004B21F0004514464FF0000A23F021
:10049000004150EA050220D054EA01021DD0C5F304
:1004A0000A570246C5F31303C1F31300C1F30A56FA
:1004B00040F4801543F48013A7EB0608101BD646C2
:1004C00008F2FD3873EB050002D308F1010801E0E2
:1004D00092185B41B8F1000F03DA00200146BDE835
:1004E000F08D00204FF48011064684460EE0171B65
:1004F00073EB050705D3121B63EB050306434CEAB8
:10050000010C49084FEA300092185B4150EA01079C
:10051000EDD152EA030012D082EA040083EA050119
:10052000084305D0101BAB4106D20122002306E090
:1005300000224FF0004302E06FF0010253101AEB6B
:1005400006004CEB085110EB0A0041EB0B01BDE833
:10055000F04D00F0E9B80EB5C10F80EAE070084434
:10056000CA07002140F233438DE80E000A460B46CD
:1005700000F0E9F803B000BD0EB540F2334102913E
:100580000021CDE900110A460B4600F0DCF803B06B
:1005900000BD000030B5041E71F1000404DB4FF013
:1005A0000044404264EB0101141E73F1000405DBBA
:1005B0001C464FF00043524263EB04038B4208BFDA
:1005C000824230BD30B5041E71F1000404DB4FF0EF
:1005D0000044404264EB0101141E73F1000405DB8A
:1005E0001C464FF00043524263EB0403994208BF9C
:1005F000904230BD01F0004330B421F0004150EA98
:10060000010206D00A0DA2F56072C1F31301002A9F
:1006100002DC30BC00207047440F44EAC104C10032
:10062000E01830BC00EBC25000F047B830B50B46C4
:10063000014600202022012409E021FA02F59D4212
:1006400005D303FA02F5491B04FA02F52844151EE6
:10065000A2F10102F1DC30BD202A04DB203A00FACD
:1006600002F1002070479140C2F1200320FA03F309
:10067000194390407047202A04DB203A21FA02F007
:100680000021704721FA02F3D040C2F120029140CC
:10069000084319467047202A06DBCB17203A41FA57
:1006A00002F043EAE07306E041FA02F3D040C2F1FF
:1006B000200291400843194670470029A8BF70479F
:1006C000401C490008BF20F00100704710B4B0FA88
:1006D00080FC00FA0CF050EA010404BF10BC704723
:1006E00049B1CCF1200421FA04F411FA0CF118BF3D
:1006F000012121430843A3EB0C01CB1D4FEA00610C
:100700004FEA102042BF002010BC704700EBC350DE
:1007100010440029A4BF10BC7047401C490008BF0A
:1007200020F0010010BC704710B5141E73F10004D6
:1007300008DA401C41F1000192185B411A4301D1D3
:1007400020F0010010BD2DE9F04D92469B4611B1FD
:10075000B1FA81F202E0B0FA80F220329046FFF75F
:100760007BFF04460F4640EA0A0041EA0B0153466C
:100770005A46084313D0114653EA010019D0C8F174
:1007800040025046FFF777FF05460E465046594651
:100790004246FFF761FF084305D0012004E02046F0
:1007A0003946BDE8F08D0020054346EAE0762C434B
:1007B00037430A986305E40AA0EB08000022FD0A0B
:1007C00044EA47540A3002D500200146E9E7010512
:1007D00010196941DDE9084500196941BDE8F04D8E
:1007E000A2E70000064C074D06E0E06840F0010378
:1007F00094E8070098471034AC42F6D3FFF7C8FCE2
:100800006039000880390008464910B54A6822F46A
:1008100040324A604A6843681A434A6001684A683D
:1008200022F480724A6001684A68036942EA03223E
:100830004A6001684A6822F040724A6001684A686A
:1008400083681A434A6001688A6822F400628A60F9
:1008500001688A68C3681A438A60816A6FF07062AF
:10086000D14201688A6822F070628A6001688A68F1
:100870000CD0836A1A438A6001688A6822F0405269
:100880008A6001688A68C36A1A4301E022F0405214
:100890008A6001688A6822F002028A6001688A68B8
:1008A000037E42EA43028A6090F820100029016822
:1008B0004A680FD042F400624A6001684A6822F434
:1008C00060424A6001684A68174C436A04EB43334C
:1008D0001A4301E022F400624A600168CA6A22F405
:1008E0007002CA620168CA6A838B104C04EB03531E
:1008F0001A43CA6201688A6822F400728A60016839
:100900008A6890F8303042EA43228A6001688A6837
:1009100022F480628A6001688A68406942EA802025
:10092000886010BD0023014000E0FFFF0000F0FFE1
:1009300038B50024009401F031FE8DF803405820B2
:100940008DF802008DF8014005208DF80000694601
:10095000042002F043F98DF80340EC208DF80200EA
:1009600080258DF801503C208DF800006946042058
:1009700002F034F98DF803408DF8024004208DF820
:100980000100B3208DF800006946042002F026F92A
:100990008DF8034001208DF802000E208DF8010033
:1009A00042208DF800006946042002F017F98DF806
:1009B00003408DF802408DF8015029208DF8000089
:1009C0006946042002F00AF98DF803402C208DF8C6
:1009D00002008DF8015018208DF8000069460420AF
:1009E00002F0FCF838BD00002DE9F04710EE100AC7
:1009F0004E4A01252DED048B002690424C4902DA27
:100A00009FED4C0A05E010EE100A884201DD9FEDD3
:100A10004A0AF2EE040A4FF47A7420EE200A002704
:100A2000BCEEC00AB8EE400A80EE208ABCEEC80ACE
:100A300010EE100A1FFA80F89FED409B08FB05F0AE
:100A4000FFF789FD8A464AEC100B814653EC192BBF
:100A500051EC100BFFF7B6FD0AD84AEC109B9FED46
:100A6000391B51EC100B53EC112BFFF793FD09D9F7
:100A7000761C7F1C4FF6FF70BFB2B6B200EA450588
:100A80000A2FDBD300EE105AB3EE091A0521B8EE97
:100A9000400A68EE000A80EE810AFCEEC00A10EE01
:100AA000900ADFED2A0A82B220EE200ABCEEC00ACC
:100AB00010EE100AB0FBF4F304FB130004E000BFD7
:100AC000B0FBF1F0B4FBF1F4B0FBF1F301FB130365
:100AD00043B9B4FBF1F301FB1343002BF0D001E069
:100AE0004008640840EA0401C907F9D00721B6FBB1
:100AF000F1F3D20301FB136102EBC00548F20100E0
:100B000000EBC406124800EB0154124802F053F8FF
:100B1000304602F050F8284602F04DF8BDEC048B48
:100B20002046BDE8F04702F046B8000000000C4245
:100B30000080894500000C4200808945CDCCCCCC9A
:100B4000CC2FA1409A9999991930B14000007A446C
:100B50003C808C001C80EC00FEE77047202000F0F9
:100B60001DBB72B6FEE7000078B50024009490F833
:100B70003C20012A19D0012280F83C200A68072372
:100B80000568092A13D9EE680A3A02EB420293403B
:100B90009E43EE600B788A680A3B03EB43039A405E
:100BA0000368DD682A43DA6010E0022078BD2E6910
:100BB00002EB420293409E432E610B788A6803EB5E
:100BC00043039A4003681D692A431A614A681F2338
:100BD000072A13D205686E6B521E02EB8202934005
:100BE0009E436E630B790A885B1E92B203EB83030C
:100BF0009A4003685D6B2A435A6327E005680D2A13
:100C000012D22E6BD21F02EB820293409E432E63C0
:100C10000B790A88DB1F92B203EB83039A400368C7
:100C20001D6B2A431A6311E0EE6A0D3A02EB820251
:100C300093409E43EE620B790A880D3B92B203EB20
:100C400083039A400368DD6A2A43DA62164B05681B
:100C5000144A9D4206D10D68122D03D1556845F402
:100C60008005556005689D4218D10B68102B01D096
:100C7000112B13D1536843F4000353600968102902
:100C80000CD10A490A4A0968B1FBF2F101EB810172
:100C9000490000E0491E00910029FBD180F83C404A
:100CA000002078BD00230140002001407400002096
:100CB00040420F000068C06C704770B504004FF0F0
:100CC000000503D0206C002610B107E0012070BDA4
:100CD000204600F01DF8666484F83C60206CC00675
:100CE00010D4206C20F4885040F00200206420468C
:100CF000FFF78AFD6664206C20F0020040F00100DE
:100D0000206400E0012584F83C60284670BD0000A6
:100D100010B586B0044614216846FFF789FA1149D8
:100D2000206888421CD110480021026842F4807279
:100D30000260006800F4807005900B481438026867
:100D400042F001020260006800F0010005900120FD
:100D500000900320CDE901016946044800F02AFA19
:100D600006B010BD0020014044380240000002409F
:100D70002DE9F041044600680D4681684FF00007F8
:100D800049050BD58068C00508D5206C40F02000CF
:100D9000206484F83C700120BDE8F08100F00CFB79
:100DA000064613E0681C11D025B100F005FB801B3E
:100DB000A8420BD920680068800707D4206C40F057
:100DC0000400206484F83C700320E5E72068006894
:100DD0008007E7D521686FF012000860206C40F4AE
:100DE000007020642068816811F0405F13D1217E7B
:100DF00089B9C16A11F4700F02D0806840050AD425
:100E0000206C20F480702064206CC00403D4206C1B
:100E100040F0010020640020BEE7000018B500216A
:100E2000009190F83C20012A07D0012280F83C2054
:100E300002689368DB0702D011E0022018BD9368B6
:100E400043F0010393602E4A2E4B1268B2FBF3F27B
:100E500002EB420200E0521E0092002AFBD102681F
:100E60009368DB0742D0036C40F20164A34343F470
:100E70008073036453685B0505D5036C23F400534A
:100E800043F480530364036CDB0404D5436C23F008
:100E90000603436400E0416480F83C101A496FF097
:100EA0002203136049680068CA06184906D08842C0
:100EB00024D1816811F0405F13D01FE08842F8D040
:100EC000134A904203D1D1F80423D206F1D0114A3B
:100ED000904213D1D1F8041301F01F011029E8D377
:100EE0000CE0816841F08041816007E0016C41F0D5
:100EF00010010164416C41F001014164002018BD02
:100F00007400002040420F000023014000200140F7
:100F1000002101400022014090F83C1001290CD032
:100F2000012180F83C1001688A6822F001028A6081
:100F300001688968C90702D007E002207047016C88
:100F400021F4885141F001010164002180F83C1036
:100F50000846704770B54379012B1CD001264671B5
:100F60000223037105682B6802F0100440F6FE723C
:100F7000A2409343D1E900210A43A2401A432A60C8
:100F800001680A68C023A3409A430A6006710021E1
:100F90004171084670BD022070BD70B5040003D0D9
:100FA0002079002510B105E0012070BD6571204653
:100FB00000F008F802202071256101202071002036
:100FC00070BD000010B586B0044614216846FFF7D6
:100FD0002FF91149206888421CD11048002102686D
:100FE00042F000520260006800F0005005900B488B
:100FF0001038026842F001020260006800F001004F
:101000000590102000900320CDE9010169460448B5
:1010100000F0D0F806B010BD007400404038024027
:101020000000024018B5046800940068104421B123
:10103000143000900360002018BD0830F9E770B547
:101040004279012A1ED001224271022303710468F1
:10105000266801F0100302FA03F52E4326600029EA
:10106000016811D00C6804F470153C249C40A54222
:1010700003D14B6843F002034B60027100214171C0
:10108000084670BD022070BD0B68C3F383030F2BAD
:10109000F3D14B6843F00103EEE72DE9F04104463C
:1010A000876D00F089F9064694F83500002502287E
:1010B00006D08020606584F834500120BDE8F081BE
:1010C0002068016821F0160101602068416921F063
:1010D00080014161206C08B9A06C20B120680168D2
:1010E00021F0080101602068016821F00101016020
:1010F0000CE000F061F9801B052807D9202060650D
:10110000032084F8350084F83450D7E7206800685D
:10111000C007EED194F85C103F208840B8600120F1
:1011200084F8350084F834500020C7E790F8351073
:10113000022903D08021416501207047052180F8F4
:1011400035100068016821F001010160002070473E
:1011500010B520210A4800F025F901280ED10948D0
:1011600000218170C17808A001F096FD0A49202075
:101170000860BDE81040172000F080B910BD0000E5
:10118000000002400000002078322E76616C3D2580
:1011900064FFFFFF00000000143C0140044910B54B
:1011A0000A68024202D00860FFF7D2FF10BD0000BB
:1011B000143C01402DE9F84FDFF8BCA100220125C5
:1011C00003264FF00F090AF1040BAAF1040E00BF29
:1011D0000B6805FA02F42340A34270D10F7907F09F
:1011E0000307012F01D0022F16D187684FEA42086A
:1011F00006FA08FC27EA0C07D1F80CC00CFA08FC28
:101200004CEA070CC0F808C04768A7430C79C4F340
:10121000001494403C4344600C79E443A4070AD092
:10122000C4684FEA420C06FA0CF7BC438F6807FA11
:101230000CF72743C7600C7904F00304022C12D189
:10124000D40800EB840CDCF820405707FF0E09FAA5
:1012500007F824EA0804D1F8108008FA07F848EAE9
:101260000408CCF8208004684FEA420C06FA0CF718
:10127000BC430F7907F0030707FA0CF72743076011
:101280004C6814F4403F70D03C4C276847F48047CA
:101290002760246822F0030704F480440094384C4B
:1012A00007EB040CDCF8084897074FEA177809FAAF
:1012B00008F7BC43334FB84202D1002724E054E082
:1012C000314FB84201D101271EE0304FB84201D161
:1012D000022719E02E4FB84201D1032714E02D4F09
:1012E000B84201D104270FE02B4FB84201D10527A6
:1012F0000AE02A4FB84201D1062705E0284FB8423C
:1013000001D1072700E0082707FA08F72743CCF8A0
:101310000878DAF800405746D1F804C09C435FEAE9
:10132000CC2C00D51C433C60DBF800405F46D1F874
:1013300004C09C435FEA8C2C00D51C433C60DEF863
:1013400000407746D1F804C09C435FEA8C3C00D54E
:101350001C433C60084F083F3C68D1F804C09C43E4
:101360005FEACC3C00D51C433C60521C102AFFF4C1
:101370002FAFBDE8F88F0000083C01404438024020
:10138000003001400000024000040240000802401A
:10139000000C0240001002400014024000180240FD
:1013A000001C02400069084000D0012070470AB1CB
:1013B000816170470904FBE70148806870470000BD
:1013C00068000020024881680278114481607047FB
:1013D000680000200B4810B5016841F400710160FD
:1013E000016841F480610160016841F4807101602D
:1013F000032000F081F8072000F006F800F024F840
:10140000002010BD003C024070B50D4D04464FF465
:101410007A712878B1FBF0F00A490968B1FBF0F065
:1014200000F01CFB48B9102C07D200222146501EA8
:1014300000F042F800206C6070BD012070BD00001B
:1014400068000020740000200B4882B0016841F45D
:1014500080410160006800F4804000900648001F51
:10146000016841F080510160006800F080500090F8
:10147000042002B000F040B84438024000280DDBE0
:1014800000F01F02012191404009800000F1E0209E
:10149000C0F88011BFF34F8FBFF36F8F70470028E4
:1014A00009DB00F01F02012191404009800000F19A
:1014B000E020C0F800117047F0B40E4B1B680C46DA
:1014C000C3F30223C3F10705042D00D90425191D18
:1014D000072901D2002300E0DB1E012606FA05F1F0
:1014E000491E214099409E40761E16403143F0BC73
:1014F00001F0E2BB0CED00E0064900F007020868CD
:101500004FF6FF03184040EA0220034A10430860E8
:10151000704700000CED00E00000FA052DE9F047EF
:101520000E46050065D0DFF81481D8F80000F7B248
:1015300000F00700B04207D288F80070D8F8000029
:1015400000F00700B04254D128683D4C810712D505
:10155000400703D5206840F4E05020602878000759
:1015600003D5206840F4604020602068A96820F01E
:10157000F000084320602878C0072DD03049686803
:101580000839012812D0022813D0032811D0096885
:10159000890700292DDA216821F003010143216028
:1015A000FFF70AFF814641F2883A0EE00968890395
:1015B000EFE709688901ECE7FFF7FEFEA0EB090100
:1015C000514502D90320BDE8F0872068696800F022
:1015D0000C00B0EB810FEFD1D8F80010404601F0BD
:1015E0000701B14207D90770006800F00700B04258
:1015F00001D00120E7E72878400705D52068E96891
:1016000020F4E050084320602878000706D52068C1
:10161000296920F4604040EAC100206000F038F8F9
:101620002168084AC1F30311515CC84006490860AB
:1016300006480068FFF7E8FE0020C4E7003C0240CF
:101640000838024004390008740000206C000020B3
:101650000448054900680968044AC1F38221515CC5
:10166000C840704774000020083802401439000850
:101670000448054900680968044AC1F34231515CD5
:10168000C840704774000020083802401439000830
:10169000154810B5006810F00C02144813D0411022
:1016A000042A0FD0082A0ED10F4C241F2268236869
:1016B00002F03F025B0207D52068C0F38810A0FB50
:1016C000010106E0084610BD2168C1F38811A1FBA5
:1016D00000010023FEF774FD2168C1F30141491C9C
:1016E0004900B0FBF1F010BD083802400024F400BE
:1016F0002DE9F84F04006ED02078DFF84C93C00736
:10170000A9F104054AD009F104000168C1F381017F
:10171000012908D00068C0F3810002280AD1D9F855
:101720000000400206D52868800337D5606800288D
:10173000E1D033E06068B0F5803F10D0B0F5A02F65
:10174000286810D020F480302860286820F4802099
:1017500028606068A8B1FFF72FFE06460DE02868F4
:1017600040F48030F4E740F480202860F7E700BFC1
:10177000FFF722FE801B642873D828688003F7D502
:101780000CE0FFF719FE064605E000BFFFF714FE68
:10179000801B6428F0D828688003F7D42078DFF80D
:1017A000AC8280074FF0000A3ED5A748001D0168B3
:1017B00011F00C0F08D00068C0F3810002280BD193
:1017C000D9F80000400207D42868800716D5E068E1
:1017D000012800D112E033E1E068B8B10120C8F877
:1017E0000000FFF7E9FD064605E000BFFFF7E4FD56
:1017F000801B0228C0D828688007F7D5286821698F
:1018000020F0F80040EAC10028600DE0C8F800A010
:10181000FFF7D2FD064604E0FFF7CEFD801B02284D
:101820001FD828688007F7D42078000722D5864F74
:1018300087486169703771B101210160FFF7BCFD14
:10184000064604E0FFF7B8FD801B022809D8386877
:101850008007F7D50EE0C0F800A0FFF7ADFD064603
:1018600005E082E0FFF7A8FD801B02287DD83868DC
:101870008007F7D42078400768D5DFF8CCB100277F
:101880000BF13C0BDBF80000C0000BD4DBF80010C0
:1018900041F08051CBF80010DBF80000012700F088
:1018A000805000906B4E3068C00510D4306840F412
:1018B00080703060FFF780FD009005E0FFF77CFD51
:1018C0000099401A022850D83068C005F6D55E4EFF
:1018D000A0686C3601280FD00528306810D020F0A1
:1018E00001003060306820F004003060A068B8B1BA
:1018F000FFF762FD00900FE0306840F00100F4E770
:1019000040F004003060F7E7FFF756FD0099411AF8
:1019100041F28830814266D830688007F4D50EE005
:10192000FFF74AFD009007E0FFF746FD0099411AD6
:1019300041F28830814256D830688007F4D42FB104
:10194000DBF8001021F08051CBF80010A069C8B37B
:101950003D49091D0968C1F3810102294AD00228C5
:10196000504607D0C8F8600000E03CE0FFF724FDD7
:1019700004463BE04746C8F86000FFF71DFD0646F9
:1019800005E000BFFFF718FD801B02282BD8286850
:101990008001F7D4D4E907010843A16A2E4A490817
:1019A00002EB0141626A41EA8211084394F82C106B
:1019B00040EA0161C9F8001001203866FFF7FCFC1D
:1019C000044606E03EE000BFFFF7F6FC001B0228DD
:1019D00009D828688001F7D534E000BFFFF7ECFC98
:1019E000001B022802D90320BDE8F88F2868800177
:1019F000F4D427E00128F7D0D9F80000E26900F418
:101A0000800191421CD1226A00F03F01914217D11E
:101A100047F6C071626A0140B1EB821F10D1A26A21
:101A20004FF0FF3300F4403103EB5202B1EB024FB1
:101A300006D194F82C1000F07060B0EB016F01D06B
:101A40000120D1E70020CFE70438024000004742E0
:101A5000800E4742007000400000FFFF10B5401E9E
:101A6000B0F1807F01D3012010BD4FF0E024606110
:101A70000F21601701F020F90020A06107202061EC
:101A8000002010BD7047704770B590F83C20012AC7
:101A900032D0012480F83C40022280F83D200368C7
:101AA0005A689D6822F070060A6832435A60134BE8
:101AB00002689A4214D0B2F1804F11D0104B9A4272
:101AC0000ED0104B9A420BD00F4B9A4208D00F4BBE
:101AD0009A4205D00E4B9A4202D00E4B9A4204D144
:101AE000496825F080031943916080F83D4000214A
:101AF00080F83C10084670BD022070BD0000014017
:101B00000004004000080040000C004000040140B8
:101B1000004001400018004010B5040003D094F8C4
:101B20003D0010B107E0012010BD002084F83C000A
:101B3000204600F01FF8022084F83D00211D206897
:101B400000F02AFE012084F8460084F83E0084F864
:101B50003F0084F8400084F8410084F8420084F893
:101B6000430084F8440084F8450084F83D000020D8
:101B700010BD000008B50068B0F1804F12D10A48CE
:101B8000016841F0010101600068002200F00100DD
:101B9000009011461C20FFF78FFCBDE808401C2078
:101BA000FFF77DBC08BD00004038024090F83D10B2
:101BB000012901D001207047022180F83D10016801
:101BC000CA6842F00102CA6000681149884214D014
:101BD000B0F1804F11D00F4988420ED00E49884293
:101BE0000BD00E49884208D00D49884205D00D49D6
:101BF000884202D00C49884204D1816801F0070173
:101C0000062903D0016841F00101016000207047FE
:101C1000000001400004004000080040000C0040AB
:101C200000040140004001400018004070B5044627
:101C300090F83C000025012817D0012684F83C606C
:101C4000022084F83D002068826822F0770222F4A6
:101C50007F4282600868502838D00DDC20284FD0A1
:101C600005DC90B3102811D14AE0022070BD302865
:101C700046D040280AD13BE060282FD070280DD0F4
:101C8000B0F5805F03D0B0F5005F12D0012584F875
:101C90003D60002084F83C00284670BDCB68D1E947
:101CA0000121206800F0DCFD2068816841F07701A7
:101CB00009E0CB68D1E90121206800F0D1FD20685E
:101CC000816841F480418160E1E719E0CA684968B0
:101CD000206800F0D7FD5021206806E0CA684968F6
:101CE000206800F0E0FD6021206800F0C3FDCEE731
:101CF000CA684968206800F0C5FD40212068F4E703
:101D0000226801461046F0E7704770B50446006847
:101D100001694FF00005C943890715D4C168C9435B
:101D2000890711D4E91E01610120207720688069AC
:101D30008007204602D0FFF7E7FF04E000F098F8A4
:101D4000204600F096F8257720680169C9434907C5
:101D500017D4C168C943490713D46FF00401016166
:101D6000022020772068806910F4407F204602D04E
:101D7000FFF7CAFF04E000F07BF8204600F079F896
:101D8000257720680169C943090716D4C168C9438A
:101D9000090712D46FF00801016104202077206840
:101DA000C0698007204602D0FFF7AEFF04E000F0D4
:101DB0005FF8204600F05DF8257720680169C94387
:101DC000C90617D4C168C943C90613D46FF01001FE
:101DD0000161082020772068C06910F4407F204608
:101DE00002D0FFF791FF04E000F042F8204600F037
:101DF00040F8257720680169C943C90708D1C1683F
:101E0000C943C90704D1891E0161204600F032F898
:101E100020680169C943090609D4C168C943090694
:101E200005D46FF0800101612046FFF72BFE20688A
:101E30000169C943490609D4C168C943490605D4A3
:101E40006FF040010161204600F02AF92068016925
:101E5000C94389060BD4C168C943890607D46FF00A
:101E6000200101612046BDE87040FFF70CBE70BD47
:101E700070477047F0B577492DED028B85B08842E9
:101E800061D1754C0025207800284FD0206A14229B
:101E9000401C2062E189B1FBF2F1814246D8256203
:101EA00060789FED6E8B60B1E26B616B606A02FBE4
:101EB0000011401CC4E90901A06B814225D00846ED
:101EC00025E0E26BE16A606A02FB0011401CC4E994
:101ED0000901206B814201D0084601E0C4E90950A4
:101EE000FEF74AFB53EC182BFEF7C6FAFEF782FB0F
:101EF00000EE100AFEF778FDA06A6421B0FBF1F154
:101F000058A0616400F0C8FE10E0C4E90950FEF773
:101F100033FB53EC182BFEF7AFFAFEF76BFB00EE2A
:101F2000100AFEF761FD40F227102082A0780128F8
:101F300002D1E078401CE070B4F91000411C02D0DE
:101F400028B1401E208205B0BDEC028BF0BD4FF0E1
:101F5000FF30208200276E464648FEF75FFF0521CE
:101F60004448FEF705FF4348FEF7D6FF4148FEF719
:101F7000A1FE26F817007F1C082FEDDB002342F698
:101F8000FF721F464FEA030136F811000744BFB243
:101F9000984200D90346904200D20246491C0829C3
:101FA000F2DBB81AC01A062190FBF1F080B2608310
:101FB000618A884202D3401A608300E06583608BA7
:101FC0002921B0FBF1F1CAB2A2722B4E617A26F838
:101FD00011002AA000F060FE607A401CC0B260725E
:101FE000C928B0D165722946E583002036F8102053
:101FF0008A4201D920731146401CC0B2C928F5D3CA
:1020000000EE101ADFED210AE183B8EE400A20EE5F
:10201000200ABCEEC00A10EE100A81B2A183E5725C
:102020005FF0000036F810208A4202D9E27A521C92
:10203000E272401CC0B2C928F4D3217B09A001F58B
:10204000487100F029FEE17A11A0491E00F024FE3B
:1020500079E700007002002000000020000000006E
:1020600000408F4078302E76616C3D2564FFFFFF85
:102070000000000014020020800000206A25642E69
:1020800076616C3D2564FFFFFF0000000AD7A33C8A
:102090006E302E76616C3D2564FFFFFF000000006E
:1020A0007047704770470000F8B50168044608683B
:1020B000CA684B6910F00F0F4FF0000559D003F0BC
:1020C000010602F49077374365D0C10705D0D105EA
:1020D00003D5216C41F001012164410705D5D907E1
:1020E00003D0216C41F002012164810705D5D90795
:1020F00003D0216C41F004012164010707D502F0EF
:102100002001314303D0216C41F008012164216C8E
:1021100000293AD0800604D5900602D5204600F06A
:1021200003FC20684069216CC0F38010090700D4CB
:1021300060B3204600F0D1FB20684069400621D5FD
:102140002068143050E8001F21F0400140E80012E0
:10215000002AF5D1A06BA8B16C490165A06BFEF710
:10216000E5FF002811D0A06B016D01B0BDE8F04083
:10217000084783060FD593060DD52046BDE8F840E5
:1021800000F0D2BB2046FFF78DFFF8BD2046FFF7D9
:1021900089FF2564F8BD266B2023012E79D1C60660
:1021A00077D5D60675D50868486800904869400616
:1021B00040D5A16B086840680004000CEAD0A28DED
:1021C0008242E7D9E085C869B0F5807F2DD02068CC
:1021D0000C3050E8001F21F4807140E80012002A02
:1021E000F5D12068143050E8001F21F0010140E8CB
:1021F0000012002AF5D12068143050E8001F21F0A9
:10220000400140E80012002AF5D184F83E302563F1
:1022100020680C3050E8001F21F0100140E8001247
:10222000002AF5D1A06BFEF738FFA08DE18D401A92
:1022300081B229E0A08DE18D401A81B2E08D0028A5
:10224000A8D00029A6D020680C3050E8002F22F436
:10225000907240E80026002EF5D12068143050E836
:10226000002F22F0010240E80026002EF5D184F86C
:102270003E30256320680C3050E8002F22F0100219
:1022800040E80023002BF5D12046FFF70AFFF8BDF8
:10229000FFE705062BD5150629D594F83D00212822
:1022A000F5D1A068B0F5805F01D12069B0B1206A96
:1022B000411C2162216800784860E08C401E0004C7
:1022C000000CE084E3D12068C16821F08001C16086
:1022D0002068C16841F04001C160D8E7206A0088E9
:1022E000C0F308004860206A801C2062E5E74006D1
:1022F000CDD55006CBD5CA68204622F04002CA6030
:1023000084F83D3000F0F7F8C1E70000CB28000862
:1023100070B5040004D094F83D00002510B106E02B
:10232000012070BD84F83C50204600F023F82420A2
:1023300084F83D002068C16821F40051C160204646
:1023400000F052FB2068016921F49041016120688E
:10235000416921F02A0141612068C16841F40051BE
:10236000C1602564202084F83D0084F83E000020F0
:1023700070BD000010B586B0044614216846FDF714
:1023800057FF18492068884229D117480021026860
:1023900042F010020260006800F010000590124840
:1023A0001438026842F001020260006800F0010087
:1023B00005904FF4C06000900220CDE90101032098
:1023C00003900720049069460848FEF7F3FE0122B7
:1023D00011462520FFF770F82520FFF760F806B0BA
:1023E00010BD0000001001404438024000000240CF
:1023F00090F83E30202B0ED159B152B190F83C30BC
:10240000012B08D0012380F83C300023036300F047
:1024100071BB012070470220704700000068064928
:10242000884202D105490120487104490122C91D91
:102430000348FFF7DDBF000000100140000000204E
:10244000B80200202DE9F843044690F83D001F46ED
:1024500016460D4620284CD1C5B1BEB194F83C00BB
:10246000012846D0012084F83C004FF00008C4F851
:102470004080212084F83D00FEF79EFFA68481461F
:10248000E684A068B0F5805F03D004E00120BDE8D9
:10249000F883206928B12E465FF0000584F83C805F
:1024A0000EE00026FAE78021204600F040FBA0B9AC
:1024B000AEB116F8010B21684860E08C401EE08444
:1024C000E08C4B464FF0000200970028EBD14FF014
:1024D0004001204600F02BFB30B10320D7E735F850
:1024E000020BC0F30800E6E7202084F83D0000203E
:1024F000CDE70220CBE77047FEE700007FB5002460
:1025000015480094019402941249039401604FF419
:102510008031C0E901140461047680F820400F493D
:10252000C0E90A140125C561C46080F830404561E6
:10253000FEF7C3FB08B1FEF714FBCDE90045694681
:1025400005480294FEF710FB002801D0FEF709FBB6
:102550007FBD000000200140140200200100000F98
:102560001CB500240C4900940A48019408600846F0
:10257000FEF713FD08B1FEF7F4FA00940022694655
:1025800005480194FEF7E6FC002801D0FEF7E9FAC1
:102590001CBD0000007400405C02002070B586B0D5
:1025A00014216846FDF744FE22480025016841F0E9
:1025B00010010160016801F010010591016841F00E
:1025C00004010160016801F004010591016841F016
:1025D00080010160016801F080010591016841F00E
:1025E000010101600068144E00F001000590012215
:1025F0003C213046FEF7DBFE3C2001248DE8310013
:102600000220039069463046FEF7D4FD202000905A
:102610004FF48810CDE9010469460848FEF7CAFD69
:10262000002202211720FEF747FF1720FEF737FF91
:1026300006B070BD30380240001002400000024079
:1026400010B586B0002416480094019402940394B7
:1026500004944FF0804105940160A721C0E9011462
:102660003121C0E9031480218161FFF755FA08B1D7
:10267000FEF777FA4FF48050009069460848FFF75C
:10268000D5FA08B1FEF76DFA049404A9044805943C
:10269000FFF7FAF9002801D0FEF763FA06B010BD83
:1026A000700200200C4810B50A4901604FF4E13176
:1026B0004160002181600C22C160C0E90412816187
:1026C000C161FFF725FE002803D0BDE81040FEF7EA
:1026D00048BA10BD00100140B8020020FEE7FEE736
:1026E00070477047FEF76EBE30B593B03021684634
:1026F000FDF79EFD14210CA8FDF79AFD1D4800254D
:10270000016841F080510160006800F08050119034
:102710001948016841F4804101600068022400F416
:102720008040119001200090000401908001CDE9CB
:10273000064008AA0420A82182E813000B906846EE
:10274000FEF7D6FF08B172B6FEE70CA90F2081E8AC
:1027500031004FF4A0500F904FF48050109005219D
:102760000CA8FEF7DBFE002801D072B6FEE713B01E
:1027700030BD00004038024000700040024801684F
:1027800041F470010160704788ED00E00148FFF7F7
:10279000BCBA000070020020F0B50268254C264D3E
:1027A000264E274F274B4FF0804CA04209D0604562
:1027B00007D0A84205D0B04203D0B84201D0984219
:1027C00004D122F0700E4A6842EA0E02A0421BD0E9
:1027D000604519D0A84217D0B04215D0B84213D0E6
:1027E000984211D0184DA8420ED0184DA8420BD0D7
:1027F000174DA84208D0174DA84205D0164DA84243
:1028000002D0164DA84203D122F44075CA682A436B
:102810004D6922F080022A4302608A68C2620A6817
:102820008262A04201D0984201D10969016301216D
:102830004161F0BD0000014000040040000800407C
:10284000000C0040000401400040014000440140F1
:102850000048014000180040001C004000200040DB
:1028600010B5846842EA032224F47F440A432243D9
:10287000826010BD826822F070020A4342F00701B4
:102880008160704710B5036A046A24F00104046291
:10289000846924F0F00444EA021423F00A020A4393
:1028A0008461026210BD10B5036A23F01003036255
:1028B0008369046A23F4704343EA023224F0A003DC
:1028C00043EA01118261016210BD10B5806B0021E5
:1028D000C185C184FFF7E6FB10BD01680C3151E8EA
:1028E000002F22F4907241E80023002BF5D10168FB
:1028F000143151E8002F22F0010241E80023002B9F
:10290000F5D1016B012909D101680C3151E8002F83
:1029100022F0100241E80023002BF5D1202180F89D
:102920003E1000210163704708B590F83E1022293F
:1029300001D0022008BD82684FF480539A4201D131
:10294000016921B1816A9A421BD04AB10AE002684A
:10295000816A5268C2F308020A80816A891C08E011
:10296000026972B10268526802F07F020A70816ADD
:10297000491C8162C18D491E0904090CC18503D01F
:1029800019E002685268F1E70168CA6822F0200283
:10299000CA600168CA6822F48072CA6001684A6924
:1029A00022F001024A61202180F83E10016B0129CA
:1029B00003D0FFF733FD002008BD0021016301684B
:1029C0000C3151E8002F22F0100241E80023002BC7
:1029D000F5D101680A68D20602D50A6849680091F3
:1029E000818DFFF75EFBE6E770B50446006801697C
:1029F000E26821F44051114301612169A068E26954
:102A000008436169114308432168CA6849F20C63AD
:102A10009A430243CA6020684169A26921F4407167
:102A20001143416131492068884202D030498842CF
:102A300002D1FEF71DFE01E0FEF70AFEE269002367
:102A4000192164253226B2F5004F626828D0A0FB18
:102A50000101930F9200FDF7B3FB0146B0FBF5F0C7
:102A60006FF01802504301EB800006EB0010B0FB42
:102A7000F5F000F0F002B1FBF5F002EB0012B1FB53
:102A8000F5F06FF01803584301EB800006EB0010DF
:102A9000B0FBF5F000F00F0021681044886070BDB5
:102AA000A0FB010192185B41FDF78AFB0146B0FBD8
:102AB000F5F00201B1FBF5F06FF01803584301EB9C
:102AC000800006EBC000B0FBF5F000F0F80002EB70
:102AD0004002B1FBF5F0584301EB800006EBC0006B
:102AE000B0FBF5F000F00700D6E700000010014051
:102AF0000014014081628285C28500210164222286
:102B000080F83E2080F83C10016921B10168CA6854
:102B100042F48072CA6001684A6942F001024A6167
:102B20000068C16841F02001C160002070472DE9B4
:102B3000F041984617460E460446069D27E0681C5D
:102B400025D02DB1FEF738FCA0EB0800A8421ED915
:102B500020680C3050E8001F21F4D07140E80012CA
:102B6000002AF5D12068143050E8001F21F001013F
:102B700040E80012002AF5D1202084F83D0084F8B6
:102B80003E00002084F83C000320BDE8F08120686E
:102B9000006836EA000004D00020B842CFD0002000
:102BA000F3E70120F9E700000148FFF77DBA0000D4
:102BB000B8020020FEE708B500210091010E8DF853
:102BC0000310010C8DF80210010A8DF801108DF828
:102BD00000006946042000F001F808BD2DE9F0412D
:102BE0002C4F88460446012204213846FEF7DFFBBD
:102BF000012000F05DFC002208213846FEF7D7FBDB
:102C0000002220213846FEF7D2FB012000F050FCC4
:102C100026E000BF08EB0400002510F8016C300628
:102C200001D5012200E0002210213846FEF7BFFB4B
:102C3000012000F03DFC012220213846FEF7B7FBC1
:102C4000012000F035FC7006060E002220213846D7
:102C5000FEF7ADFB6D1CEDB2082DE0D3641EE4B2AF
:102C6000002CD7D1002210213846FEF7A0FB01200E
:102C700000F01EFC012208213846FEF798FB0120D7
:102C800000F016FC3846BDE8F04100220821FEF7AE
:102C90008EBB0000001002400FB4054B10B503A915
:102CA000044A029800F05AFB10BC5DF814FB0000C7
:102CB000D1340008780000200907090E002804DB41
:102CC00000F1E02080F80014704700F00F0000F1E0
:102CD000E02080F8141D704770B5D94B00242DED0D
:102CE000020B2DED108BDDE91010984205DA20F073
:102CF00000429A4201D809D141B19DED100BBDECC3
:102D0000108B02B0BDE8704000F0F6BAB0F5801F3D
:102D100026DA11430BD0002813DA012000F018FB4B
:102D2000BDEC108B02B0BDE8704000F0F1BA02209B
:102D300000F00EFB00F0C8FA51EC100B81F00041DE
:102D40009EE06FF035049FEDC00B53EC102B9DED12
:102D5000100B51EC100BFDF71DFBCDE910010846DF
:102D600004EB2051C0F31304B948A1F2FF31204411
:102D700000F4801080F07F6282F04052224301EB29
:102D800020559FEDB50B119253EC102B9DED100BC0
:102D900051EC100BFDF7F8FA41EC180BA01CC0F336
:102DA00013009FEDAFDB9FEDB0EBB14E7E440328E7
:102DB0006CD296ED000B51EC180B53EC102BFDF779
:102DC000E9FB1DD1002D01BF96ED000BBDEC108B72
:102DD00002B070BD2846FDF7BEFB41EC180B53EC6A
:102DE0001D2BFDF7D7FA41EC190B53EC1E2B51ECC0
:102DF000180BFDF7CFFA53EC192BFDF724FA3FE03F
:102E00009FED9D0B51EC180B53EC102BFDF7C2FA04
:102E10009FED9B1B53EC112BFDF7B9FA41EC190BFD
:102E200053EC182B51EC180BFDF7B4FA53EC192B9B
:102E3000FDF7B0FA41EC190B002D04BF53EC192B30
:102E400051EC180B1AD02846FDF785FB41EC1A0B04
:102E500053EC1D2BFDF79EFA53EC192BFDF797FA57
:102E600053EC182BFDF790FA41EC180B53EC1E2B8A
:102E700051EC1A0BFDF78EFA53EC182BFDF784FA80
:102E8000BDEC108B02B041EC100B70BD9FED7E0BC2
:102E900051EC180B53EC102BFDF7D5F941EC100B4E
:102EA00051EC180B53EC102BFDF7E6FA41EC190B23
:102EB0002846FDF750FB41EC1B0B53EC192B51EC52
:102EC000190BFDF767FA41EC1A0B714853EC1A2BFA
:102ED000261851EC1A0BFDF75DFA41EC1F0B6D48FB
:102EE000C4F1510404F5D724B0EE4F0AF0EE6F0A96
:102EF0000321784400F06CF953EC1F2B51EC100BBC
:102F0000FDF748FA41EC1C0B6348B0EE4F0AF0EEB7
:102F10006F0A0421784400F05BF953EC1A2B51EC52
:102F2000100BFDF737FA344353EC1C2BFDF78BF9EC
:102F300041EC1C0B002C4CDD9FED510B51EC180BA0
:102F400053EC102BFDF726FA53EC182BFDF722FA61
:102F500041EC1A0B55B353EC1D2B51EC1B0BFDF739
:102F600019FA41EC1D0B53EC1C2B51EC1A0BFDF71D
:102F70006AF953EC192BFDF70DFA53EC1D2BFDF7F5
:102F800062F953EC1A2BFDF702FA53EC182BFDF7FC
:102F9000FBF941EC180B53EC1E2B51EC1B0BFDF70E
:102FA000F9F953EC182BFDF7EFF969E753EC1C2BFB
:102FB00051EC1A0BFDF747F953EC192BFDF7EAF921
:102FC00053EC1A2BFDF7E3F953EC182BFDF7DFF95F
:102FD00056E735B353EC1D2B51EC1B0BFDF7DAF91B
:102FE00041EC1A0B53EC1C2B51EC180BFDF7CCF9F0
:102FF00053EC192BFDF7CEF953EC1A2BFDF7C4F95E
:1030000053EC182BFDF7C0F941EC180B53EC1E2BB9
:1030100051EC1B0BFDF7BEF953EC182BFDF7B4F97F
:103020002EE753EC1C2B51EC180BFDF7ADF953ECCC
:10303000192BFDF7AFF953EC182BFDF7A8F91FE793
:103040000000F07F0000000000000000000050437E
:10305000645F090000000000000000000000F03F75
:10306000763C7935EF39EA3D0000E0FE422EE63F3E
:10307000A80B000000000000555555555555D53F8B
:10308000000000000000E03F0000000000000040E1
:1030900086EBF9FF2A0A0000200A00000000000069
:1030A00070B5414A00252DED020B2DED048BDDE9B5
:1030B0000404944205DA24F00041914201D809D178
:1030C00040B19DED040BBDEC048B02B0BDE8704037
:1030D00000F012B9B4F5801F26DA08430BD0002C9B
:1030E00013DA012000F034F9BDEC048B02B0BDE826
:1030F000704000F00DB9022000F02AF900F0E4F869
:1031000051EC100B81F0004146E09FED290B6FF070
:10311000350553EC102B9DED040B51EC100BFDF716
:1031200039F9CDE904010C4605EB2450A0F2FF303B
:10313000C10F40F2FF32521A62F31F540844FDF7E8
:103140000AFA05949DED040B41EC180B51EC100BA1
:1031500000F0CAF99FED181B53EC112BFDF71AF97B
:103160009FED170B41EC190B53EC102B51EC180B86
:10317000FDF710F953EC192BFDF765F89FED120BD5
:1031800041EC190B53EC102B51EC180BFDF702F925
:1031900053EC192BFDF757F8BDEC048B02B041EC52
:1031A000100B70BD000000000000F07F0000000068
:1031B00000000000000050430EE526157BCBDB3FEE
:1031C000362BF111F3FE593D00609F501344D33F5D
:1031D00070B504462DED028B4D1E00EBC500B0EE20
:1031E000408AF0EE608A90ED000B35F0060017D0B3
:1031F00053EC182B51EC100BFDF7CCF841EC100BF5
:103200006D1E04EBC50090ED001B51EC100B53EC50
:10321000112BFDF718F841EC100B35F00600E7D143
:10322000022D36D0042D1CD0062D1CBFBDEC028B08
:1032300070BD53EC182B51EC100BFDF7ABF894ED6F
:103240000A1B53EC112BFCF7FEFF53EC182BFDF778
:10325000A1F894ED081B53EC112BFCF7F4FF41ECA3
:10326000100B53EC182B51EC100BFDF793F894ED69
:10327000061B53EC112BFCF7E6FF53EC182BFDF764
:1032800089F894ED040B53EC102BFCF7DCFF41ECB8
:10329000100B53EC182B51EC100BFDF77BF894ED51
:1032A000021B53EC112BFCF7CEFF53EC182BFDF750
:1032B00071F894ED001B53EC112BFCF7C4FFBDEC2F
:1032C000028B41EC100B70BD9FED070B10B553EC5A
:1032D000102B9FED070B51EC100BFDF7CDF841ECD7
:1032E000100B10BD000000000000000000000000F6
:1032F000000000000000F03F10B553EC102B51EC23
:10330000100BFCF7A0FF41EC100B10BD00000000FB
:103310009FED050B10B553EC102B51EC100BFDF786
:10332000ABF841EC100B10BD0000000000000000E5
:1033300002E008C8121F08C1002AFAD1704770477E
:10334000002001E001C1121F002AFBD170470000DC
:1033500001490860704700007C0000202DE9FF4F04
:1033600089B09B460446002506E025280BD05A4626
:103370000B999047641C6D1C20780028F5D10DB086
:103380002846BDE8F08F0027B8460122474900E0F3
:10339000074314F8013F203B02FA03F00842F7D13B
:1033A00020782E2819D114F8010F47F004072A2895
:1033B0000ED06FF02F022078A0F1300109290CD82F
:1033C00008EB880102EB410100EB0108641CF2E705
:1033D0000A98641C50F8048B0A9020780028CED0FC
:1033E000642808D0692806D075281ED05A460B9943
:1033F00090476D1C58E00A994FF00A0901C90A91DB
:10340000002802DA40422D2102E0390504D52B21A3
:103410008DF82010012103E0F90704D02021F7E7FF
:103420008A4608AE0DE00021FAE70A994FF00A0932
:1034300001C90A91F7E74946FDF7F8F8303106F877
:10344000011D0028F7D1ADEB060000F12009780737
:1034500001D44FF00108C84502DDA8EB090000E0E7
:1034600000208046002706E008A85A46C05D0B9958
:1034700090476D1C7F1C5745F6DB04E030205A4610
:103480000B9990476D1CB8F10001A8F10108F5DC1B
:1034900005E016F8010B5A460B9990476D1CB9F1DF
:1034A0000001A9F10109F4DC641C65E709280100A9
:1034B0000CB500210B22009107E011460192491E34
:1034C0000191FCD10099491C00918142F5D30CBDBA
:1034D00013B54FF6FF73012269460248FEF7B2FFAB
:1034E00000981CBDB802002010B541EC100BFFF78E
:1034F000F3FB51EC100B10BD2DED048BFDF76AFFB3
:10350000FFF7F2F8FFF74AF8FFF79AF8FFF7CAF863
:10351000FFF726F8FEF7F2FFFDF70AFA9FEDE50A3E
:10352000FDF762FAE54CE448A062E548FEF73EFB91
:103530000122E11DE348FEF75BFFA08AFDF71CF8BE
:1035400041EC100BFFF7ACFD84ED180BA079FDF7F3
:1035500013F841EC100BFFF7A3FD94ED181B51EC91
:10356000100B53EC112BFCF70FFF9FEDD78B53EC97
:10357000182BFCF70FFFFDF73DF800EE100A84ED65
:10358000170A94ED131AD4ED150A70EE411A94ED52
:10359000140A30EE600A61EE801A94ED120A30EEE1
:1035A000410A81EE801A31EE200A84ED160ADFED21
:1035B000C80A20EE200A9FEDC79A00221146C0EEED
:1035C000090AC548BCEEE00A10EE103AFDF72AFDE4
:1035D0000021C148FDF733FD01274FF00A09DFED57
:1035E000BF9A4FF0640804F118060025607900289E
:1035F000FCD0657120790C28F8D2DFE800F0060EC7
:10360000388492ADB9DCFDFCFCFB2572E0795528CD
:1036100001D12771EAE72571E8E7E07998B101283F
:1036200013D0022814D0092814D0042814D0052857
:1036300014D0062814D0072814D0082814D0102835
:10364000E9D10B2002E0022000E003202071CDE749
:103650000420FBE70520F9E70620F7E70720F5E758
:103660000820F3E70920F1E784F80490BEE7207A08
:10367000E1793154401CC0B220720228B6D12571C4
:103680003078E082A071FCF777FF41EC100BFFF778
:1036900007FD94ED181B51EC100B53EC112BFCF7AC
:1036A00073FE53EC182BFCF775FEFCF7A3FF00EE3E
:1036B000100A002284ED170AD4ED130AD4ED141A6F
:1036C000114630EE601A94ED150A834871EEC01A67
:1036D00021EE211AD4ED121A71EEE01AC1EE210A80
:1036E00030EE800A84ED160A20EE290AC0EE090A9F
:1036F000BCEEE00A10EE103AFDF794FC002176488B
:10370000FDF79DFC72E7207AE1793154401CC0B28C
:10371000207202289BD125713078642110FB01F0C2
:103720009EE0207AE1793154401C20721720FDF789
:10373000B6FE207A02288AD1A770E570257125701F
:103740003088642100EE100A4143A162F8EE400A7D
:10375000B2EE041A206429E0207AE1793154401C49
:10376000C0B220720228CDD12571277065623DE775
:10377000207AE1793154401CC0B220720228C1D1B4
:1037800025715749A06A884201D3564800E0643049
:10379000B0FBF8F16164A06253A0FFF77DFA2570D9
:1037A00094ED0A0AF8EE400A9FED531A80EE810A62
:1037B000FDF71AF91AE7207AE1793154401CC0B2BA
:1037C000207202289ED1257127706770257265725C
:1037D000C01E2082656284F806909FED480BFFF7BB
:1037E0005FFC94ED181B51EC100B53EC112BFCF704
:1037F000CBFD02E053E040E034E053EC182BFCF743
:10380000C9FDFCF7F7FE00EE100A002284ED170A4E
:10381000D4ED130AD4ED141A114630EE601A94ED6B
:10382000150A2D4871EEC01A21EE211AD4ED121A94
:1038300071EEE01AC1EE210A30EE800A84ED160A1C
:1038400020EE290AC0EE090ABCEEE00A10EE103A9A
:10385000FDF7E8FB00212048FDF7F1FB41F2707015
:10386000E081C3E6207AE1793154401CC0B2207275
:1038700002289FD1257165701AE0207AE1793154D0
:10388000401CC0B22072022894D125712570A16A13
:1038900015A0B1FBF8F16164FFF7FEF9A6E6207A06
:1038A000E1793154401CC0B220720228D9D125716F
:1038B00025709BE60000A042803801000000002037
:1038C00070020020B8020020000000000000344018
:1038D0000000804500404E455C02002000F07F451E
:1038E000B0AD0100905F010078302E76616C3D250F
:1038F00064FFFFFF0000000000007A4400000000A9
:103900000000244000000000000000000102030449
:10391000060708090000000001020304000000007F
:1039200004FA97999999D93FAF788E1DC571CC3F0C
:103930009FC678D0099AC33F935555555555E53FD5
:10394000599322942449D23FDE03CB966446C73F65
:1039500044523EDF12F1C23F0000000000000000B0
:10396000803900080000002080000000303300088B
:10397000003A000880000020800600004033000864
:103980000000000000000A00000000000000E80342
:10399000FFFFFF02E6000A00000000000000000038
:1039A000000000000000000000000000905F010027
:1039B000B0AD01004C6201006CB001006400000079
:1039C00000000000000000000000A441000016C23A
:1039D0000000AF440000C8420000C84200000000E0
:1039E00000000000000000000100000010000000C6
:1039F000000000000024F4000000000000000000AF
:040000050800018965
:00000001FF
